:100000000C9462000C948A000C948A000C948A0070
:100010000C948A000C948A000C948A000C948A0038
:100020000C948A000C948A000C948A000C948A0028
:100030000C948A000C948A000C948A000C948A0018
:100040000C9491030C948A000C94AC040C948A00D8
:100050000C948A000C948A000C948A000C948A00F8
:100060000C948A000C948A000000000024002700F1
:100070002A0000000000250028002B0000000000DE
:1000800023002600290004040404040404040202DA
:100090000202020203030303030301020408102007
:1000A0004080010204081020010204081020000012
:1000B0000007000201000003040600000000000029
:1000C0000000310611241FBECFEFD8E0DEBFCDBF48
:1000D00012E0A0E0B1E0E2E3F0E102C005900D9291
:1000E000A234B107D9F712E0A2E4B2E001C01D9238
:1000F000A33EB107E1F710E0C4ECD0E004C02297C2
:10010000FE010E941308C23CD107C9F70E948A036E
:100110000C9417080C940000FB01DC0101900D9277
:100120000020E1F7089580914202803329F4809104
:100130001602909117020895813329F480911802D4
:10014000909119020895823329F480911A029091B6
:100150001B020895833329F480911C0290911D02A3
:100160000895843329F480911E0290911F0208950E
:10017000853329F4809120029091210208958633DD
:1001800029F480912202909123020895873329F463
:1001900080912402909125020895883329F480915A
:1001A0002602909127020895893329F4809128022C
:1001B000909129020895813611F0813429F48091BB
:1001C0002A0290912B020895823611F0823429F48C
:1001D00080912C0290912D020895833611F0833482
:1001E00029F480912E0290912F020895843611F007
:1001F000843429F48091300290913102089585363B
:1002000011F0853429F480913202909133020895DF
:10021000863611F0863429F48091340290913502AB
:100220000895809136029091370208950F931F939D
:1002300000ED12E0C8014EEF50E060E070E020E019
:1002400030E00E947907C80140EC50E060E070E0C7
:1002500020E030E00E9479071F910F9108950F93DD
:100260001F9300ED12E0C8014EEF50E060E070E037
:1002700020E030E00E947907C80140E850E060E0EB
:1002800070E020E030E00E9479071F910F910895FF
:1002900004C080ED92E00E94F60580ED92E00E949D
:1002A000E2058823B1F708950F931F930E94480138
:1002B00000ED12E0C8014CE750E060E070E020E0A3
:1002C00030E00E947907C8014DE950E060E070E03D
:1002D00020E030E00E9479070E9448011F910F91B1
:1002E00008950F931F930E94480100ED12E0C8018A
:1002F0004EEF50E060E070E020E030E00E947907CF
:10030000C80141E050E060E070E020E030E00E9491
:1003100079070E9448011F910F9108950E94710171
:100320000E942F0180ED92E060E071E00E94AA0639
:1003300068EE73E080E090E00E94D903109213020F
:10034000109212020895CF92DF92EF92FF920F93D4
:100350001F93CF93DF936C010E94710164EF71E0F2
:1003600080E090E00E94D9030E942F0180ED92E08E
:100370006EE071E00E94AA06C6E1D2E0EE24FF24FE
:10038000870127C00E94160180ED92E067E171E0CD
:100390000E94AA0680ED92E0B801A70120E130E0BA
:1003A0000E94790780ED92E069E171E00E94AA065F
:1003B0006991799180ED92E00E94AA0668EE73E05F
:1003C00080E090E00E94D9030894E11CF11C011D1B
:1003D000111DCE14DF04B4F60E944801DF91CF91C5
:1003E0001F910F91FF90EF90DF90CF90089580EDD7
:1003F00092E00E94E205882341F080ED92E00E94A5
:10040000F605809342020E94480108952F923F9280
:100410004F925F926F927F928F929F92AF92BF9214
:10042000CF92DF92EF92FF920F931F93DF93CF93C0
:10043000CDB7DEB728970FB6F894DEBF0FBECDBF9D
:100440000E94710168EE73E080E090E00E94D903A1
:100450000E942F0180ED92E06CE171E00E94AA06FB
:1004600068EE73E080E090E00E94D90326E1A22EBE
:1004700022E0B22E9924CC24DD2476013E0108949A
:10048000611C711C90E2892E88E0282E312C2C0EE4
:100490003D1E2601D301EAE3F1E088E001900D92D0
:1004A0008150E1F700E010E03DC080ED92E00E9455
:1004B000E2058823D1F380ED92E00E94F605982EA4
:1004C0008EE2981619F4C2010E94A3010E9416013F
:1004D00080ED92E06BE271E00E94AA0680ED92E06E
:1004E000692D0E94A206F301E00FF11F90820F5FB9
:1004F0001F4F80ED92E062E371E00E94AA0680ED5A
:1005000092E0B8010E94710780ED92E066E371E02D
:100510000E94AA0680ED92E0B701A60120E130E03A
:100520000E947907ECE29E1621F00730110559F080
:10053000BCCF073011053CF4F301E00FF11F8192AD
:10054000E215F305E1F7F501819191915F01B301A6
:100550000E948C000894C11CD11CE11CF11CF6E324
:10056000AF16F2E0BF0609F094CF0E9448018FE079
:1005700090E00E94A30128960FB6F894DEBF0FBE4C
:10058000CDBFCF91DF911F910F91FF90EF90DF9042
:10059000CF90BF90AF909F908F907F906F905F9023
:1005A0004F903F902F90089580ED92E00E94E205D9
:1005B000882379F10E94F7010E942F0180ED92E0DB
:1005C00062E471E00E94AA0680ED92E0609142022E
:1005D0000E94A20680ED92E06AE471E00E94AA0601
:1005E0000E94160180ED92E063E571E00E94AA0688
:1005F0000E949300BC0180ED92E00E94AA0668E888
:1006000073E180E090E00E94D9030E9471010E9492
:100610004801809114020E945D04019749F4809181
:100620001202909113028D52914014F00E948E019B
:100630000E942F0180ED92E06CE571E00E94AA0615
:100640000E94160180ED92E06DE671E00E94AA061C
:10065000609112027091130280ED92E00E94710786
:100660006AE070E080E090E00E94D903809112027D
:10067000909113022FE7883F920729F001969093FB
:1006800013028093120208950F931F938091140216
:1006900060E00E943D0400ED12E0C80140E855E230
:1006A00060E070E00E94E9040E94480164EF71E09C
:1006B00080E090E00E94D9030E9454010E9406024B
:1006C0000E9448010E94710168EE73E080E090E0B2
:1006D0000E94D9030E942F01C80168E771E00E94BF
:1006E000AA0668EE73E080E090E00E94D9030E94C1
:1006F00071010E9454010E9448010E942F0168EE7E
:1007000073E080E090E00E94D9030E94D4021F9120
:100710000F9108950E9403040E9444030E94D40292
:10072000FDCF1F920F920FB60F9211242F933F937C
:100730008F939F93AF93BF9380914702909148020C
:10074000A0914902B0914A0230914B020196A11D3D
:10075000B11D232F2D5F2D3720F02D570196A11DA0
:10076000B11D20934B028093470290934802A093BF
:100770004902B0934A028091430290914402A091B1
:100780004502B09146020196A11DB11D809343021E
:1007900090934402A0934502B0934602BF91AF915B
:1007A0009F918F913F912F910F900FBE0F901F90AF
:1007B0001895EF92FF920F931F937B018C018FB7D7
:1007C000F89440914702509148026091490270911B
:1007D0004A028FBF2FB7F894809147029091480248
:1007E000A0914902B0914A022FBF841B950BA60B22
:1007F000B70BE816F9060A071B0760F71F910F9160
:10080000FF90EF900895789484B5826084BD84B59C
:10081000816084BD85B5826085BD85B5816085BDFB
:10082000EEE6F0E0808181608083E1E8F0E08081A5
:1008300082608083808181608083E0E8F0E0808155
:1008400081608083E1EBF0E0808184608083E0EB75
:10085000F0E0808181608083EAE7F0E0808184605D
:1008600080838081826080838081816080838081B9
:10087000806880831092C1000895282F30E0C9015C
:1008800086569F4FFC0194912A573F4FF90184915E
:10089000882391F0E82FF0E0EE0FFF1FE859FF4F9B
:1008A000A591B491662329F48C91909589238C931A
:1008B00008958C91892B8C930895682F70E0CB015B
:1008C00082559F4FFC012491CB0186569F4FFC011E
:1008D00044916A577F4FFB019491992319F420E0CA
:1008E00030E038C0222331F1233021F480918000A0
:1008F0008F7705C0243031F4809180008F7D809304
:10090000800018C0213019F484B58F7704C02230DC
:1009100021F484B58F7D84BD0DC0263021F48091F3
:10092000B0008F7705C0273029F48091B0008F7D0B
:100930008093B000892F90E0880F991F84589F4FB3
:10094000FC01A591B4918C9120E030E0842311F05A
:1009500021E030E0C90108951F920F920FB60F9267
:1009600011242F933F934F935F936F937F938F93B4
:100970009F93AF93BF93EF93FF934091C600E09195
:10098000CC02F091CD02CF01019660E870E00E94A8
:10099000AD079C018091CE029091CF0228173907B4
:1009A00039F0E45BFD4F40833093CD022093CC02BD
:1009B000FF91EF91BF91AF919F918F917F916F9137
:1009C0005F914F913F912F910F900FBE0F901F900D
:1009D00018955F926F927F928F929F92AF92BF9283
:1009E000CF92DF92EF92FF920F931F93CF93DF93FB
:1009F000EC013A014B01413482E458078FE068076B
:100A000080E078070CF07FC060E874E88EE190E049
:100A1000A40193010E94E207215030404040504021
:100A2000CA01B90122E030E040E050E00E94E20754
:100A300059016A01A6019501209530954095509580
:100A400094E0220F331F441F551F9A95D1F760E0A1
:100A500074E284EF90E00E94E207CA01B9012FEF2F
:100A600030E040E050E00E948E07A40193010E9414
:100A7000E207C90181509F4F181619061CF4522E27
:100A80005A9403C055245394521A60E079E08DE3E0
:100A900090E0A40193010E94E207215030404040C1
:100AA0005040CA01B90122E030E040E050E00E942D
:100AB000E207209530954095509583E0220F331F33
:100AC000441F551F8A95D1F760E074E284EF90E0EF
:100AD0000E94E207CA01B9012FEF30E040E050E088
:100AE0000E948E07A40193010E94E207C901815070
:100AF0009F4F181619061CF4822F815002C081E006
:100B0000821B851500F5E885F98581E090E00A886B
:100B100002C0880F991F0A94E2F7808360E079E0B1
:100B20008DE390E0A40193010E94E2072150304040
:100B300040405040CA01B90122E030E040E050E0BE
:100B40000E94E20704C0E885F98510829501EC81D6
:100B5000FD813083EE81FF812083EA85FB85208142
:100B600041E050E0CA010E8402C0880F991F0A9428
:100B7000E2F7282B2083EA85FB852081CA010F84B8
:100B800002C0880F991F0A94E2F7282B2083EA8578
:100B9000FB858081088802C0440F551F0A94E2F744
:100BA000842B8083DF91CF911F910F91FF90EF9065
:100BB000DF90CF90BF90AF909F908F907F906F907D
:100BC0005F900895DC011296ED91FC911397E05827
:100BD000FF4F8191919180589F4F20813181821BDD
:100BE000930B60E870E00E94AD070895CF93DF9308
:100BF000DC011296ED91FC911397EF01CE57DF4F78
:100C000048815981E058FF4F80819181E058F04040
:100C10008417950719F42FEF3FEF0CC0E40FF51F71
:100C20002081CA01019660E870E00E94AD079983B7
:100C3000888330E0C901DF91CF910895FC01A08540
:100C4000B18521898C9190E0022E02C095958795FF
:100C50000A94E2F780FFF6CF0484F585E02D6083E7
:100C600008958CE392E09093D1028093D0028CE4BB
:100C700092E09093D3028093D20285EC90E090931F
:100C8000D5028093D40284EC90E09093D7028093B5
:100C9000D60280EC90E09093D9028093D80281EC48
:100CA00090E09093DB028093DA0286EC90E09093E0
:100CB000DD028093DC0284E08093DE0283E0809397
:100CC000DF0287E08093E00285E08093E10281E02B
:100CD0008093E20208950F931F93CF93DF938C01CB
:100CE000EB0109C02196D801ED91FC910190F081B2
:100CF000E02DC801099568816623A1F7DF91CF91A6
:100D00001F910F910895EF92FF920F931F93CF932E
:100D1000DF938C017B01EA010CC0D7016D917D014D
:100D2000D801ED91FC910190F081E02DC801099569
:100D30002197209791F7DF91CF911F910F91FF900D
:100D4000EF900895DC01ED91FC910190F081E02D90
:100D500009950895DC01ED91FC910280F381E02D6D
:100D6000099508952F923F924F925F926F927F92D2
:100D70008F929F92AF92BF92CF92DF92EF92FF92AB
:100D80000F931F93DF93CF93CDB7DEB7A0970FB626
:100D9000F894DEBF0FBECDBF1C016A017B01411577
:100DA00051056105710549F4DC01ED91FC9101905B
:100DB000F081E02D60E3099554C088249924540102
:100DC000422E55246624772401E010E00C0F1D1FED
:100DD000080D191DC701B601A30192010E94C007A9
:100DE000F80160830894811C911CA11CB11CC701EF
:100DF000B601A30192010E94C007C901DA016C018A
:100E00007D01C114D104E104F104F1F681E0E82E82
:100E1000F12CEC0EFD1EE80CF91C3E010894611C3F
:100E2000711CD501C4010197A109B1096C01C81851
:100E3000D90814C0F601EE0DFF1D60816A3010F470
:100E4000605D01C0695CD101ED91FC910190F08180
:100E5000E02DC10109950894E108F1086E147F04A2
:100E600049F7A0960FB6F894DEBF0FBECDBFCF9165
:100E7000DF911F910F91FF90EF90DF90CF90BF9087
:100E8000AF909F908F907F906F905F904F903F902A
:100E90002F900895EF92FF920F931F93CF93DF93BC
:100EA000EC017A018B0177FF0FC0E881F981019095
:100EB000F081E02D6DE2099510950095F094E09495
:100EC000E11CF11C011D111DCE01B801A7012AE092
:100ED0000E94B206DF91CF911F910F91FF90EF908A
:100EE0000895AB01662757FD6095762F0E944A074B
:100EF0000895DC012115310541F4ED91FC9101903B
:100F0000F081E02D642F099508952A30310519F4F8
:100F10000E944A0708950E94B2060895629FD00178
:100F2000739FF001829FE00DF11D649FE00DF11DA4
:100F3000929FF00D839FF00D749FF00D659FF00D53
:100F40009927729FB00DE11DF91F639FB00DE11D40
:100F5000F91FBD01CF011124089597FB092E072623
:100F60000AD077FD04D049D006D000201AF470953D
:100F700061957F4F0895F6F7909581959F4F08955D
:100F8000A1E21A2EAA1BBB1BFD010DC0AA1FBB1F8D
:100F9000EE1FFF1FA217B307E407F50720F0A21BFF
:100FA000B30BE40BF50B661F771F881F991F1A946C
:100FB00069F760957095809590959B01AC01BD0196
:100FC000CF01089597FB092E05260ED057FD04D0BA
:100FD000D7DF0AD0001C38F4509540953095219504
:100FE0003F4F4F4F5F4F0895F6F79095809570955E
:100FF00061957F4F8F4F9F4F0895AA1BBB1B51E1F7
:1010000007C0AA1FBB1FA617B70710F0A61BB70B78
:10101000881F991F5A95A9F780959095BC01CD011D
:101020000895EE0FFF1F0590F491E02D0994F894B8
:02103000FFCFF0
:1010320053656E64206D792064617461210052658C
:10104200616420696E3A0050003A2000496E707562
:101052007420506C61796572733A00726561643A0A
:101062002000204E3A0020503A002020202020204C
:101072002000496E7075743A200020202020202024
:101082002020004869742062793A20004E6F20487F
:1010920069742E2E2E202020202020200053656EE1
:1010A2006444656C61793A005374617274696E6765
:1010B2002047616D652E2E2E00504C41594552300D
:1010C20000504C415945523100504C415945523221
:1010D20000504C415945523300504C41594552340D
:1010E20000504C415945523500504C4159455236F9
:1010F20000504C415945523700504C4159455238E5
:1011020000504C415945523900504C4159455241C9
:1011120000504C415945524200504C4159455243AE
:1011220000504C415945524400504C41594552459A
:1011320000504C415945524600494E56414C494493
:10114200210064000200890191019901A101A90114
:10115200B101B901C101C901D101D901E101E9011D
:10116200F101F90101020902000000001E066B06EE
:021172008306F2
:00000001FF
