:100000000C9435000C945D000C945D000C945D0024
:100010000C945D000C945D000C945D000C945D00EC
:100020000C945D000C945D000C945D000C945D00DC
:100030000C945D000C945D000C945D000C945D00CC
:100040000C940A030C945D000C94B6030C945D00B0
:100050000C945D000C945D000C945D000C945D00AC
:100060000C945D000C945D003B0511241FBECFEF86
:10007000D8E0DEBFCDBF12E0A0E0B1E0E6E4FEE0F4
:1000800002C005900D92AE31B107D9F712E0AEE192
:10009000B2E001C01D92AF3BB107E1F710E0CAE644
:1000A000D0E004C02297FE010E941D07C836D10788
:1000B000C9F70E9403030C9421070C940000FB0174
:1000C000DC0101900D920020E1F7089580911E025D
:1000D000803329F48091F2019091F30108958133E6
:1000E00029F48091F4019091F5010895823329F467
:1000F0008091F6019091F7010895833329F480915E
:10010000F8019091F9010895843329F48091FA015E
:100110009091FB010895853329F48091FC01909121
:10012000FD010895863329F48091FE019091FF012D
:100130000895873329F48091000290910102089577
:10014000883329F480910202909103020895893343
:1001500029F480910402909105020895813629F4D2
:1001600080910602909107020895823629F48091C9
:100170000802909109020895833629F480910A02B9
:1001800090910B020895843629F480910C0290918D
:100190000D020895853629F480910E0290910F0288
:1001A0000895863629F480911002909111020895E5
:1001B000809112029091130208950F931F930CEAFD
:1001C00012E0C8014EEF50E060E070E020E030E067
:1001D0000E948306C80140EC50E060E070E020E03F
:1001E00030E00E9483061F910F9108950F931F9393
:1001F0000CEA12E0C8014EEF50E060E070E020E051
:1002000030E00E948306C80140E850E060E070E002
:1002100020E030E00E9483061F910F91089504C0F2
:100220008CEA92E00E9400058CEA92E00E94EC04C5
:100230008823B1F708950F931F930E940F010CEAD2
:1002400012E0C8014CE750E060E070E020E030E0F0
:100250000E948306C8014DE950E060E070E020E0B4
:1002600030E00E9483060E940F011F910F910895B4
:100270000F931F930E940F010CEA12E0C8014EEF8A
:1002800050E060E070E020E030E00E948306C801AA
:1002900041E050E060E070E020E030E00E94830642
:1002A0000E940F011F910F910895CF92DF92EF925C
:1002B000FF920F931F93CF93DF936C010E9438013D
:1002C00064EF71E080E090E00E9452030E94F6002B
:1002D0008CEA92E060E071E00E94B405C2EFD1E0E8
:1002E000EE24FF24870127C00E94DD008CEA92E003
:1002F00069E071E00E94B4058CEA92E0B801A701C0
:1003000020E130E00E9483068CEA92E06BE071E02D
:100310000E94B405699179918CEA92E00E94B4053B
:1003200068EE73E080E090E00E9452030894E11CC4
:10033000F11C011D111DCE14DF04B4F60E940F0143
:10034000DF91CF911F910F91FF90EF90DF90CF90B1
:1003500008958CEA92E00E94EC04882341F08CEA34
:1003600092E00E94000580931E020E940F010895F2
:100370008CEA92E00E94EC04882379F10E94A901A2
:100380000E94F6008CEA92E06EE071E00E94B405F3
:100390008CEA92E060911E020E94AC058CEA92E029
:1003A00066E171E00E94B4050E94DD008CEA92E0F3
:1003B0006FE171E00E94B4050E946600BC018CEA06
:1003C00092E00E94B40568E873E180E090E00E944A
:1003D00052030E9438010E940F010E94F6008CEA2D
:1003E00092E068E271E00E94B4056AE070E080E0AB
:1003F00090E00E94520308952F923F924F925F9295
:100400006F927F928F929F92AF92BF92CF92DF9224
:10041000EF92FF920F931F93DF93CF93CDB7DEB789
:1004200028970FB6F894DEBF0FBECDBF0E943801EB
:1004300068EE73E080E090E00E9452030E94F600B4
:100440008CEA92E062E371E00E94B40568EE73E02A
:1004500080E090E00E94520322EFA22E21E0B22E13
:100460009924CC24DD2476013E010894611C711C82
:1004700090E2892E88E0282E312C2C0E3D1E26017C
:10048000D301E0E5F1E088E001900D928150E1F7C1
:1004900000E010E03DC08CEA92E00E94EC0488236A
:1004A000D1F38CEA92E00E940005982E8EE2981615
:1004B00019F4C2010E9455010E94DD008CEA92E00D
:1004C00061E471E00E94B4058CEA92E0692D0E941B
:1004D000AC05F301E00FF11F90820F5F1F4F8CEA14
:1004E00092E068E471E00E94B4058CEA92E0B80101
:1004F0000E947B068CEA92E06CE471E00E94B405F5
:100500008CEA92E0B701A60120E130E00E94830668
:10051000ECE29E1621F00730110559F0BCCF0730F0
:1005200011053CF4F301E00FF11F8192E215F30590
:10053000E1F7F501819191915F01B3010E945F00A4
:100540000894C11CD11CE11CF11CF2E1AF16F2E0D1
:10055000BF0609F094CF0E940F018FE090E00E9447
:10056000550128960FB6F894DEBF0FBECDBFCF91D0
:10057000DF911F910F91FF90EF90DF90CF90BF9090
:10058000AF909F908F907F906F905F904F903F9033
:100590002F9008950F931F930CEA12E0C80140E8D2
:1005A00055E260E070E00E94F3030E940F0164EFE7
:1005B00071E080E090E00E9452030E941B010E94C3
:1005C000FC010E940F010E94380168EE73E080E098
:1005D00090E00E9452030E94F600C80168E571E0B5
:1005E0000E94B40560ED77E080E090E00E94520345
:1005F0000E9438010E941B010E940F010E94B80155
:100600001F910F9108950E947C030E94CA020E94CC
:10061000B801FDCF1F920F920FB60F9211242F93A6
:100620003F938F939F93AF93BF93809123029091B9
:100630002402A0912502B091260230912702019652
:10064000A11DB11D232F2D5F2D3720F02D570196B1
:10065000A11DB11D209327028093230290932402B1
:10066000A0932502B093260280911F029091200250
:10067000A0912102B09122020196A11DB11D80938B
:100680001F0290932002A0932102B0932202BF91F7
:10069000AF919F918F913F912F910F900FBE0F902F
:1006A0001F901895EF92FF920F931F937B018C017F
:1006B0008FB7F89440912302509124026091250253
:1006C000709126028FBF2FB7F894809123029091EA
:1006D0002402A0912502B09126022FBF841B950B06
:1006E000A60BB70BE816F9060A071B0760F71F9160
:1006F0000F91FF90EF900895789484B5826084BD47
:1007000084B5816084BD85B5826085BD85B5816015
:1007100085BDEEE6F0E0808181608083E1E8F0E075
:10072000808182608083808181608083E0E8F0E066
:10073000808181608083E1EBF0E080818460808350
:10074000E0EBF0E0808181608083EAE7F0E0808187
:1007500084608083808182608083808181608083E7
:100760008081806880831092C10008951F920F924B
:100770000FB60F9211242F933F934F935F936F9374
:100780007F938F939F93AF93BF93EF93FF9340918A
:10079000C600E091A802F091A902CF01019660E89D
:1007A00070E00E94B7069C018091AA029091AB0272
:1007B0002817390739F0E85DFD4F40833093A902CF
:1007C0002093A802FF91EF91BF91AF919F918F91DC
:1007D0007F916F915F914F913F912F910F900FBE3D
:1007E0000F901F9018955F926F927F928F929F92B9
:1007F000AF92BF92CF92DF92EF92FF920F931F932F
:10080000CF93DF93EC013A014B01413482E4580766
:100810008FE0680780E078070CF07FC060E874E83C
:100820008EE190E0A40193010E94EC06215030403B
:1008300040405040CA01B90122E030E040E050E0C1
:100840000E94EC0659016A01A60195012095309598
:100850004095509594E0220F331F441F551F9A95E1
:10086000D1F760E074E284EF90E00E94EC06CA01E8
:10087000B9012FEF30E040E050E00E949806A4015B
:1008800093010E94EC06C90181509F4F181619066A
:100890001CF4522E5A9403C055245394521A60E00B
:1008A00079E08DE390E0A40193010E94EC062150D1
:1008B000304040405040CA01B90122E030E040E001
:1008C00050E00E94EC06209530954095509583E0CD
:1008D000220F331F441F551F8A95D1F760E074E241
:1008E00084EF90E00E94EC06CA01B9012FEF30E0DE
:1008F00040E050E00E949806A40193010E94EC069B
:10090000C90181509F4F181619061CF4822F81507F
:1009100002C081E0821B851500F5E885F98581E03C
:1009200090E00A8802C0880F991F0A94E2F780833A
:1009300060E079E08DE390E0A40193010E94EC0671
:100940002150304040405040CA01B90122E030E01F
:1009500040E050E00E94EC0604C0E885F985108272
:100960009501EC81FD813083EE81FF812083EA8552
:10097000FB85208141E050E0CA010E8402C0880F4F
:10098000991F0A94E2F7282B2083EA85FB852081B2
:10099000CA010F8402C0880F991F0A94E2F7282B1E
:1009A0002083EA85FB858081088802C0440F551F9B
:1009B0000A94E2F7842B8083DF91CF911F910F91EE
:1009C000FF90EF90DF90CF90BF90AF909F908F906F
:1009D0007F906F905F900895DC011296ED91FC91ED
:1009E0001397E058FF4F8191919180589F4F20813C
:1009F0003181821B930B60E870E00E94B706089576
:100A0000CF93DF93DC011296ED91FC911397EF01E8
:100A1000CE57DF4F48815981E058FF4F8081918147
:100A2000E058F0408417950719F42FEF3FEF0CC002
:100A3000E40FF51F2081CA01019660E870E00E9472
:100A4000B7069983888330E0C901DF91CF9108957B
:100A5000FC01A085B18521898C9190E0022E02C015
:100A6000959587950A94E2F780FFF6CF0484F58583
:100A7000E02D6083089588E192E09093AD02809329
:100A8000AC0288E292E09093AF028093AE0285ECD4
:100A900090E09093B1028093B00284EC90E0909348
:100AA000B3028093B20280EC90E09093B502809301
:100AB000B40281EC90E09093B7028093B60286EC8A
:100AC00090E09093B9028093B80284E08093BA02D8
:100AD00083E08093BB0287E08093BC0285E0809333
:100AE000BD0281E08093BE0208950F931F93CF93C0
:100AF000DF938C01EB0109C02196D801ED91FC91A7
:100B00000190F081E02DC801099568816623A1F765
:100B1000DF91CF911F910F910895EF92FF920F9364
:100B20001F93CF93DF938C017B01EA010CC0D701A7
:100B30006D917D01D801ED91FC910190F081E02D46
:100B4000C80109952197209791F7DF91CF911F91C7
:100B50000F91FF90EF900895DC01ED91FC910190D1
:100B6000F081E02D09950895DC01ED91FC91028062
:100B7000F381E02D099508952F923F924F925F9255
:100B80006F927F928F929F92AF92BF92CF92DF929D
:100B9000EF92FF920F931F93DF93CF93CDB7DEB702
:100BA000A0970FB6F894DEBF0FBECDBF1C016A013F
:100BB0007B01411551056105710549F4DC01ED9199
:100BC000FC910190F081E02D60E3099554C08824E8
:100BD00099245401422E55246624772401E010E024
:100BE0000C0F1D1F080D191DC701B601A3019201AD
:100BF0000E94CA06F80160830894811C911CA11C04
:100C0000B11CC701B601A30192010E94CA06C90125
:100C1000DA016C017D01C114D104E104F104F1F6A3
:100C200081E0E82EF12CEC0EFD1EE80CF91C3E01D3
:100C30000894611C711CD501C4010197A109B10977
:100C40006C01C818D90814C0F601EE0DFF1D6081B3
:100C50006A3010F4605D01C0695CD101ED91FC91D6
:100C60000190F081E02DC10109950894E108F10897
:100C70006E147F0449F7A0960FB6F894DEBF0FBE3E
:100C8000CDBFCF91DF911F910F91FF90EF90DF903B
:100C9000CF90BF90AF909F908F907F906F905F901C
:100CA0004F903F902F900895EF92FF920F931F93D4
:100CB000CF93DF93EC017A018B0177FF0FC0E881BE
:100CC000F9810190F081E02D6DE209951095009574
:100CD000F094E094E11CF11C011D111DCE01B8013E
:100CE000A7012AE00E94BC05DF91CF911F910F91CF
:100CF000FF90EF900895AB01662757FD6095762F22
:100D00000E9454060895DC012115310541F4ED914E
:100D1000FC910190F081E02D642F099508952A300F
:100D2000310519F40E94540608950E94BC050895E7
:100D3000629FD001739FF001829FE00DF11D649FBF
:100D4000E00DF11D929FF00D839FF00D749FF00D4B
:100D5000659FF00D9927729FB00DE11DF91F639FEC
:100D6000B00DE11DF91FBD01CF011124089597FBBE
:100D7000092E07260AD077FD04D049D006D00020DE
:100D80001AF4709561957F4F0895F6F790958195C7
:100D90009F4F0895A1E21A2EAA1BBB1BFD010DC097
:100DA000AA1FBB1FEE1FFF1FA217B307E407F5071B
:100DB00020F0A21BB30BE40BF50B661F771F881FF7
:100DC000991F1A9469F760957095809590959B018D
:100DD000AC01BD01CF01089597FB092E05260ED069
:100DE00057FD04D0D7DF0AD0001C38F45095409549
:100DF000309521953F4F4F4F5F4F0895F6F79095EF
:100E00008095709561957F4F8F4F9F4F0895AA1BD6
:100E1000BB1B51E107C0AA1FBB1FA617B70710F0E5
:100E2000A61BB70B881F991F5A95A9F78095909517
:100E3000BC01CD010895EE0FFF1F0590F491E02D48
:060E40000994F894FFCFB5
:100E46005265616420696E3A0050003A2000496E8E
:100E56007075743A20002020202020202020004891
:100E660069742062793A20004E6F204869742E2EEC
:100E76002E00496E70757420506C61796572733AF4
:100E860000726561643A2000204E3A0020503A0014
:100E960020202020202020005374617274696E6720
:100EA6002047616D652E2E2E00504C41594552301B
:100EB60000504C415945523100504C41594552322F
:100EC60000504C415945523300504C41594552341B
:100ED60000504C415945523500504C415945523607
:100EE60000504C415945523700504C4159455238F3
:100EF60000504C415945523900504C4159455241D8
:100F060000504C415945524200504C4159455243BC
:100F160000504C415945524400504C4159455245A8
:100F260000504C415945524600494E56414C4944A1
:100F360021006901710179018101890191019901FC
:100F4600A101A901B101B901C101C901D101D901AB
:0E0F5600E101E90100000000280575058D0588
:00000001FF
