:100000000C9462000C948A000C948A000C948A0070
:100010000C948A000C948A000C948A000C948A0038
:100020000C948A000C948A000C948A000C948A0028
:100030000C948A000C948A000C948A000C948A0018
:100040000C94A3030C948A000C94BE040C948A00B4
:100050000C948A000C948A000C948A000C948A00F8
:100060000C948A000C948A000000000024002700F1
:100070002A0000000000250028002B0000000000DE
:1000800023002600290004040404040404040202DA
:100090000202020203030303030301020408102007
:1000A0004080010204081020010204081020000012
:1000B0000007000201000003040600000000000029
:1000C0000000430611241FBECFEFD8E0DEBFCDBF36
:1000D00012E0A0E0B1E0E6E5F0E102C005900D928B
:1000E000AA35B107D9F712E0AAE5B2E001C01D9226
:1000F000AB3FB107E1F710E0C4ECD0E004C02297B9
:10010000FE010E942508C23CD107C9F70E949C034A
:100110000C9429080C940000FB01DC0101900D9265
:100120000020E1F7089580915A02803329F48091EC
:100130002D0290912E020895813329F480912F028F
:10014000909130020895823329F480913102909188
:1001500032020895833329F480913302909134025E
:100160000895843329F480913502909136020895E0
:10017000853329F4809137029091380208958633AF
:1001800029F48091390290913A020895873329F435
:1001900080913B0290913C020895883329F480912C
:1001A0003D0290913E020895893329F480913F02E7
:1001B000909140020895813611F0813429F48091A4
:1001C0004102909142020895823611F0823429F45E
:1001D00080914302909144020895833611F0833454
:1001E00029F480914502909146020895843611F0D9
:1001F000843429F48091470290914802089585360D
:1002000011F0853429F48091490290914A020895B1
:10021000863611F0863429F480914B0290914C027D
:10022000089580914D0290914E0208950F931F936F
:1002300008EE12E0C8014EEF50E060E070E020E010
:1002400030E00E948B07C80140EC50E060E070E0B5
:1002500020E030E00E948B071F910F9108950F93CB
:100260001F9308EE12E0C8014EEF50E060E070E02E
:1002700020E030E00E948B07C80140E850E060E0D9
:1002800070E020E030E00E948B071F910F910895ED
:1002900004C088EE92E00E94080688EE92E00E9478
:1002A000F4058823B1F708950F931F930E94480126
:1002B00008EE12E0C8014CE750E060E070E020E09A
:1002C00030E00E948B07C8014DE950E060E070E02B
:1002D00020E030E00E948B070E9448011F910F919F
:1002E00008950F931F930E94480108EE12E0C80181
:1002F0004EEF50E060E070E020E030E00E948B07BD
:10030000C80141E050E060E070E020E030E00E9491
:100310008B070E9448011F910F9108950E9471015F
:1003200062E370E080E090E00E94EB030E942F0106
:1003300088EE92E060E071E00E94BC0668EE73E037
:1003400080E090E00E94EB030E94710110922A026B
:10035000109229020895CF92DF92EF92FF920F93AD
:100360001F93CF93DF936C010E94710164EF71E0E2
:1003700080E090E00E94EB030E942F0188EE92E063
:1003800061E171E00E94BC06CDE2D2E0EE24FF24E0
:10039000870127C00E94160188EE92E06AE171E0B1
:1003A0000E94BC0688EE92E0B801A70120E130E08F
:1003B0000E948B0788EE92E06CE171E00E94BC061F
:1003C0006991799188EE92E00E94BC0668EE73E034
:1003D00080E090E00E94EB030894E11CF11C011DF9
:1003E000111DCE14DF04B4F60E944801DF91CF91B5
:1003F0001F910F91FF90EF90DF90CF90089588EEBE
:1004000092E00E94F405882341F088EE92E00E9479
:10041000080680935A020E94480108952F923F9245
:100420004F925F926F927F928F929F92AF92BF9204
:10043000CF92DF92EF92FF920F931F93DF93CF93B0
:10044000CDB7DEB728970FB6F894DEBF0FBECDBF8D
:100450000E94710168EE73E080E090E00E94EB037F
:100460000E942F0188EE92E06FE171E00E94BC06CD
:1004700068EE73E080E090E00E94EB032DE2A22E94
:1004800022E0B22E9924CC24DD2476013E0108948A
:10049000611C711C90E2892E88E0282E312C2C0ED4
:1004A0003D1E2601D301EDE3F1E088E001900D92BD
:1004B0008150E1F700E010E03DC088EE92E00E943C
:1004C000F4058823D1F388EE92E00E940806982E66
:1004D0008EE2981619F4C2010E94AB010E94160127
:1004E00088EE92E06EE271E00E94BC0688EE92E037
:1004F000692D0E94B406F301E00FF11F90820F5F97
:100500001F4F88EE92E065E371E00E94BC0688EE22
:1005100092E0B8010E94830788EE92E069E371E0FF
:100520000E94BC0688EE92E0B701A60120E130E00F
:100530000E948B07ECE29E1621F00730110559F05E
:10054000BCCF073011053CF4F301E00FF11F81929D
:10055000E215F305E1F7F501819191915F01B30196
:100560000E948C000894C11CD11CE11CF11CFDE40C
:10057000AF16F2E0BF0609F094CF0E9448018FE069
:1005800090E00E94AB0128960FB6F894DEBF0FBE34
:10059000CDBFCF91DF911F910F91FF90EF90DF9032
:1005A000CF90BF90AF909F908F907F906F905F9013
:1005B0004F903F902F90089588EE92E00E94F405AE
:1005C000882379F10E94FF010E942F0188EE92E0BA
:1005D00065E471E00E94BC0688EE92E060915A02E8
:1005E0000E94B40688EE92E06DE471E00E94BC06C1
:1005F0000E94160188EE92E066E571E00E94BC065A
:100600000E949300BC0188EE92E00E94BC0668E85C
:1006100073E180E090E00E94EB030E9471010E9470
:10062000480180912B020E946F04019749F4809148
:10063000290290912A02893C910514F00E948E01B2
:100640000E942F0188EE92E06FE571E00E94BC06E7
:100650000E94160188EE92E060E771E00E94BC06FD
:100660008091290290912A02883C91052CF488EE11
:1006700092E065E771E004C088EE92E062E871E024
:100680000E94BC066AE070E080E090E00E94EB030C
:100690008091290290912A022FE7883F920729F042
:1006A000019690932A028093290208950F931F9335
:1006B00080912B0260E00E944F0408EE12E0C80116
:1006C00040E855E260E070E00E94FB040E944801AF
:1006D00064EF71E080E090E00E94EB030E9454011F
:1006E0000E940E020E9448010E94710168EE73E0B0
:1006F00080E090E00E94EB030E942F01C8016FE8A8
:1007000071E00E94BC0668EE73E080E090E00E9419
:10071000EB030E9471010E9454010E9448010E9453
:100720002F0168EE73E080E090E00E94EB030E94EE
:10073000DC021F910F9108950E9415040E94560338
:100740000E94DC02FDCF1F920F920FB60F92112470
:100750002F933F938F939F93AF93BF9380915F02AB
:1007600090916002A0916102B091620230916302A7
:100770000196A11DB11D232F2D5F2D3720F02D5780
:100780000196A11DB11D2093630280935F02909397
:100790006002A0936102B093620280915B0290912B
:1007A0005C02A0915D02B0915E020196A11DB11D97
:1007B00080935B0290935C02A0935D02B0935E0213
:1007C000BF91AF919F918F913F912F910F900FBE4D
:1007D0000F901F901895EF92FF920F931F937B013C
:1007E0008C018FB7F89440915F0250916002609144
:1007F0006102709162028FBF2FB7F89480915F02FF
:1008000090916002A0916102B09162022FBF841B9F
:10081000950BA60BB70BE816F9060A071B0760F73E
:100820001F910F91FF90EF900895789484B58260A6
:1008300084BD84B5816084BD85B5826085BD85B584
:10084000816085BDEEE6F0E0808181608083E1E833
:10085000F0E0808182608083808181608083E0E835
:10086000F0E0808181608083E1EBF0E08081846052
:100870008083E0EBF0E0808181608083EAE7F0E054
:1008800080818460808380818260808380818160B8
:1008900080838081806880831092C1000895282F12
:1008A00030E0C90186569F4FFC0194912A573F4F73
:1008B000F9018491882391F0E82FF0E0EE0FFF1FFB
:1008C000E859FF4FA591B491662329F48C91909536
:1008D00089238C9308958C91892B8C930895682F8C
:1008E00070E0CB0182559F4FFC012491CB018656CD
:1008F0009F4FFC0144916A577F4FFB0194919923CC
:1009000019F420E030E038C0222331F1233021F403
:10091000809180008F7705C0243031F48091800071
:100920008F7D8093800018C0213019F484B58F77B3
:1009300004C0223021F484B58F7D84BD0DC02630E3
:1009400021F48091B0008F7705C0273029F4809181
:10095000B0008F7D8093B000892F90E0880F991FA1
:1009600084589F4FFC01A591B4918C9120E030E018
:10097000842311F021E030E0C90108951F920F9205
:100980000FB60F9211242F933F934F935F936F9362
:100990007F938F939F93AF93BF93EF93FF93409178
:1009A000C600E091E402F091E502CF01019660E813
:1009B00070E00E94BF079C018091E6029091E702DF
:1009C0002817390739F0EC59FD4F40833093E50281
:1009D0002093E402FF91EF91BF91AF919F918F918E
:1009E0007F916F915F914F913F912F910F900FBE2B
:1009F0000F901F9018955F926F927F928F929F92A7
:100A0000AF92BF92CF92DF92EF92FF920F931F931C
:100A1000CF93DF93EC013A014B01413482E4580754
:100A20008FE0680780E078070CF07FC060E874E82A
:100A30008EE190E0A40193010E94F4072150304020
:100A400040405040CA01B90122E030E040E050E0AF
:100A50000E94F40759016A01A6019501209530957D
:100A60004095509594E0220F331F441F551F9A95CF
:100A7000D1F760E074E284EF90E00E94F407CA01CD
:100A8000B9012FEF30E040E050E00E94A007A40140
:100A900093010E94F407C90181509F4F181619064F
:100AA0001CF4522E5A9403C055245394521A60E0F9
:100AB00079E08DE390E0A40193010E94F4072150B6
:100AC000304040405040CA01B90122E030E040E0EF
:100AD00050E00E94F407209530954095509583E0B2
:100AE000220F331F441F551F8A95D1F760E074E22F
:100AF00084EF90E00E94F407CA01B9012FEF30E0C3
:100B000040E050E00E94A007A40193010E94F40776
:100B1000C90181509F4F181619061CF4822F81506D
:100B200002C081E0821B851500F5E885F98581E02A
:100B300090E00A8802C0880F991F0A94E2F7808328
:100B400060E079E08DE390E0A40193010E94F40756
:100B50002150304040405040CA01B90122E030E00D
:100B600040E050E00E94F40704C0E885F985108257
:100B70009501EC81FD813083EE81FF812083EA8540
:100B8000FB85208141E050E0CA010E8402C0880F3D
:100B9000991F0A94E2F7282B2083EA85FB852081A0
:100BA000CA010F8402C0880F991F0A94E2F7282B0C
:100BB0002083EA85FB858081088802C0440F551F89
:100BC0000A94E2F7842B8083DF91CF911F910F91DC
:100BD000FF90EF90DF90CF90BF90AF909F908F905D
:100BE0007F906F905F900895DC011296ED91FC91DB
:100BF0001397E058FF4F8191919180589F4F20812A
:100C00003181821B930B60E870E00E94BF0708955A
:100C1000CF93DF93DC011296ED91FC911397EF01D6
:100C2000CE57DF4F48815981E058FF4F8081918135
:100C3000E058F0408417950719F42FEF3FEF0CC0F0
:100C4000E40FF51F2081CA01019660E870E00E9460
:100C5000BF079983888330E0C901DF91CF91089560
:100C6000FC01A085B18521898C9190E0022E02C003
:100C7000959587950A94E2F780FFF6CF0484F58571
:100C8000E02D6083089583E592E09093E9028093DC
:100C9000E80284E692E09093EB028093EA0285EC0E
:100CA00090E09093ED028093EC0284EC90E09093BE
:100CB000EF028093EE0280EC90E09093F10280933B
:100CC000F00281EC90E09093F3028093F20286ECC4
:100CD00090E09093F5028093F40284E08093F60212
:100CE00083E08093F70287E08093F80285E08093A9
:100CF000F90281E08093FA0208950F931F93CF9336
:100D0000DF938C01EB0109C02196D801ED91FC9194
:100D10000190F081E02DC801099568816623A1F753
:100D2000DF91CF911F910F910895EF92FF920F9352
:100D30001F93CF93DF938C017B01EA010CC0D70195
:100D40006D917D01D801ED91FC910190F081E02D34
:100D5000C80109952197209791F7DF91CF911F91B5
:100D60000F91FF90EF900895DC01ED91FC910190BF
:100D7000F081E02D09950895DC01ED91FC91028050
:100D8000F381E02D099508952F923F924F925F9243
:100D90006F927F928F929F92AF92BF92CF92DF928B
:100DA000EF92FF920F931F93DF93CF93CDB7DEB7F0
:100DB000A0970FB6F894DEBF0FBECDBF1C016A012D
:100DC0007B01411551056105710549F4DC01ED9187
:100DD000FC910190F081E02D60E3099554C08824D6
:100DE00099245401422E55246624772401E010E012
:100DF0000C0F1D1F080D191DC701B601A30192019B
:100E00000E94D207F80160830894811C911CA11CE8
:100E1000B11CC701B601A30192010E94D207C9010A
:100E2000DA016C017D01C114D104E104F104F1F691
:100E300081E0E82EF12CEC0EFD1EE80CF91C3E01C1
:100E40000894611C711CD501C4010197A109B10965
:100E50006C01C818D90814C0F601EE0DFF1D6081A1
:100E60006A3010F4605D01C0695CD101ED91FC91C4
:100E70000190F081E02DC10109950894E108F10885
:100E80006E147F0449F7A0960FB6F894DEBF0FBE2C
:100E9000CDBFCF91DF911F910F91FF90EF90DF9029
:100EA000CF90BF90AF909F908F907F906F905F900A
:100EB0004F903F902F900895EF92FF920F931F93C2
:100EC000CF93DF93EC017A018B0177FF0FC0E881AC
:100ED000F9810190F081E02D6DE209951095009562
:100EE000F094E094E11CF11C011D111DCE01B8012C
:100EF000A7012AE00E94C406DF91CF911F910F91B4
:100F0000FF90EF900895AB01662757FD6095762F0F
:100F10000E945C070895DC012115310541F4ED9133
:100F2000FC910190F081E02D642F099508952A30FD
:100F3000310519F40E945C0708950E94C4060895C3
:100F4000629FD001739FF001829FE00DF11D649FAD
:100F5000E00DF11D929FF00D839FF00D749FF00D39
:100F6000659FF00D9927729FB00DE11DF91F639FDA
:100F7000B00DE11DF91FBD01CF011124089597FBAC
:100F8000092E07260AD077FD04D049D006D00020CC
:100F90001AF4709561957F4F0895F6F790958195B5
:100FA0009F4F0895A1E21A2EAA1BBB1BFD010DC085
:100FB000AA1FBB1FEE1FFF1FA217B307E407F50709
:100FC00020F0A21BB30BE40BF50B661F771F881FE5
:100FD000991F1A9469F760957095809590959B017B
:100FE000AC01BD01CF01089597FB092E05260ED057
:100FF00057FD04D0D7DF0AD0001C38F45095409537
:10100000309521953F4F4F4F5F4F0895F6F79095DC
:101010008095709561957F4F8F4F9F4F0895AA1BC4
:10102000BB1B51E107C0AA1FBB1FA617B70710F0D3
:10103000A61BB70B881F991F5A95A9F78095909505
:10104000BC01CD010895EE0FFF1F0590F491E02D36
:061050000994F894FFCFA3
:1010560053656E64696E67206D7920696E666F21CF
:10106600005265616420696E3A0050003A200049DA
:101076006E70757420506C61796572733A00726592
:1010860061643A2000204E3A0020503A0020202089
:101096002020202000496E7075743A200020202000
:1010A6002020202020004869742062793A20004ED2
:1010B6006F204869742E2E2E20202020202020000C
:1010C60047756E3A00204368617267696E672E2E17
:1010D6002000205245414459212020202020005341
:1010E60074617274696E672047616D652E2E2E00DD
:1010F600504C415945523000504C415945523100EF
:10110600504C415945523200504C415945523300DA
:10111600504C415945523400504C415945523500C6
:10112600504C415945523600504C415945523700B2
:10113600504C415945523800504C4159455239009E
:10114600504C415945524100504C4159455242007C
:10115600504C415945524300504C41594552440068
:10116600504C415945524500504C41594552460054
:10117600494E56414C49442100C8000200A001A82E
:1011860001B001B801C001C801D001D801E001E8F1
:1011960001F001F801000208021002180220020004
:0A11A60000000030067D06950600EB
:00000001FF
