:100000000C9435000C945D000C945D000C945D0024
:100010000C945D000C945D000C945D000C945D00EC
:100020000C945D000C945D000C945D000C945D00DC
:100030000C945D000C945D000C945D000C945D00CC
:100040000C941E010C945D000C94E8010C945D006E
:100050000C945D000C945D000C945D000C945D00AC
:100060000C945D000C945D00310311241FBECFEF92
:10007000D8E0DEBFCDBF11E0A0E0B1E0E8E7F9E0F5
:1000800002C005900D92A239B107D9F712E0A2E99A
:10009000B1E001C01D92A633B107E1F710E0CAE656
:1000A000D0E004C02297FE010E947F04C836D10729
:1000B000C9F70E9417010C94BA040C940000A0E048
:1000C000B0E0E5E6F0E00C948B04EC01A880B98088
:1000D000CA80DB80A114B104C104D10441F484E2DC
:1000E000A82E89EDB82E8BE5C82E87E0D82EC60144
:1000F000B5012DE133EF41E050E00E944E0427EAC4
:1001000031E440E050E00E94FA037B018C01C6011B
:10011000B5012DE133EF41E050E00E944E04CA01E9
:10012000B9012CEE34EF4FEF5FEF0E94FA036E0D32
:100130007F1D801F911F97FF04C061507040804059
:100140009048688379838A839B839B01AC015F77A6
:10015000B901CA01CDB7DEB7EAE00C94A7040E944A
:100160005F00089581E791E00E945F000895609329
:1001700071017093720180937301909374010895DB
:1001800060E070E080E090E024E630E040E050E0A5
:100190000E948D0370939301609392016730710503
:1001A000D1F460E070E080E090E02FE030E040E0EB
:1001B00050E00E948D03FB017093950160939401C0
:1001C000EB58FE4F83E292E060810E94EA031092B6
:1001D00093011092920164E670E080E090E00E944A
:1001E0006601CECF68E873E180E090E00E9466018E
:1001F00083E292E060E071E00E94F20368E97AE352
:1002000080E090E00E9466010E94C000089583E2B1
:1002100092E040E855E260E070E00E94250280E054
:100220000E94CA010E94AB030E94F20008950E943E
:1002300090010E9407010E94F200FDCF1F920F92D1
:100240000FB60F9211242F933F938F939F93AF93E9
:10025000BF9380919A0190919B01A0919C01B091D4
:100260009D0130919E010196A11DB11D232F2D5F8F
:100270002D3720F02D570196A11DB11D20939E0111
:1002800080939A0190939B01A0939C01B0939D0150
:100290008091960190919701A0919801B091990158
:1002A0000196A11DB11D8093960190939701A09393
:1002B0009801B0939901BF91AF919F918F913F9118
:1002C0002F910F900FBE0F901F901895EF92FF92F5
:1002D0000F931F937B018C018FB7F89440919A0183
:1002E00050919B0160919C0170919D018FBF2FB730
:1002F000F89480919A0190919B01A0919C01B091FA
:100300009D012FBF841B950BA60BB70BE816F906B2
:100310000A071B0760F71F910F91FF90EF90089558
:10032000789484B5826084BD84B5816084BD85B5D0
:10033000826085BD85B5816085BDEEE6F0E0808197
:1003400081608083E1E8F0E0808182608083808149
:1003500081608083E0E8F0E0808181608083E1EB70
:10036000F0E0808184608083E0EBF0E08081816058
:100370008083EAE7F0E0808184608083808182600E
:1003800080838081816080838081806880831092F7
:10039000C10008958F70909186019295990F990FE1
:1003A000907C982B90937C0080917A00806480935D
:1003B0007A0080917A0086FDFCCF209178004091F0
:1003C0007900942F80E030E0282B392BC901089563
:1003D0001F920F920FB60F9211242F933F934F93BA
:1003E0005F936F937F938F939F93AF93BF93EF939D
:1003F000FF934091C600E0911F02F0912002CF01CF
:10040000019660E870E00E9419049C01809121022D
:10041000909122022817390739F0E156FE4F4083A8
:100420003093200220931F02FF91EF91BF91AF9173
:100430009F918F917F916F915F914F913F912F91FC
:100440000F900FBE0F901F9018955F926F927F9242
:100450008F929F92AF92BF92CF92DF92EF92FF92D4
:100460000F931F93CF93DF93EC013A014B0141347B
:1004700082E458078FE0680780E078070CF07FC0BF
:1004800060E874E88EE190E0A40193010E944E04BC
:100490002150304040405040CA01B90122E030E0D4
:1004A00040E050E00E944E0459016A01A601950106
:1004B000209530954095509594E0220F331F441FAE
:1004C000551F9A95D1F760E074E284EF90E00E94A6
:1004D0004E04CA01B9012FEF30E040E050E00E9425
:1004E000FA03A40193010E944E04C90181509F4F59
:1004F000181619061CF4522E5A9403C0552453940E
:10050000521A60E079E08DE390E0A40193010E942B
:100510004E042150304040405040CA01B90122E011
:1005200030E040E050E00E944E0420953095409528
:10053000509583E0220F331F441F551F8A95D1F732
:1005400060E074E284EF90E00E944E04CA01B901B9
:100550002FEF30E040E050E00E94FA03A401930145
:100560000E944E04C90181509F4F181619061CF4B1
:10057000822F815002C081E0821B851500F5E8853D
:10058000F98581E090E00A8802C0880F991F0A94DB
:10059000E2F7808360E079E08DE390E0A4019301CD
:1005A0000E944E042150304040405040CA01B901E1
:1005B00022E030E040E050E00E944E0404C0E885B4
:1005C000F98510829501EC81FD813083EE81FF81F8
:1005D0002083EA85FB85208141E050E0CA010E843A
:1005E00002C0880F991F0A94E2F7282B2083EA851E
:1005F000FB852081CA010F8402C0880F991F0A94CD
:10060000E2F7282B2083EA85FB858081088802C0D9
:10061000440F551F0A94E2F7842B8083DF91CF911A
:100620001F910F91FF90EF90DF90CF90BF90AF9010
:100630009F908F907F906F905F900895FC01A085B0
:10064000B18521898C9190E0022E02C09595879505
:100650000A94E2F780FFF6CF0484F585E02D6083ED
:1006600008958BE891E090932402809323028FE910
:1006700091E0909326028093250285EC90E0909380
:1006800028028093270284EC90E090932A028093C2
:10069000290280EC90E090932C0280932B0281EC55
:1006A00090E090932E0280932D0286EC90E0909340
:1006B000300280932F0284E08093310283E08093A4
:1006C000320287E08093330285E08093340281E038
:1006D000809335020895EF92FF920F931F937B0151
:1006E0008C01611571058105910529F420E030E048
:1006F00040E050E00BC00E94B200A80197010E94A8
:100700004E04AC01CB01DA019C01AD01B901CA0173
:100710001F910F91FF90EF900895EF92FF920F932A
:100720001F937B018C01621773078407950764F49C
:10073000261B370B480B590BCA01B9010E946B03EA
:10074000E60EF71E081F191FB701C8011F910F9170
:10075000FF90EF900895009729F0BC0180E090E0B1
:100760000E94B70008950F931F93CF93DF938C01DE
:10077000EB0109C02196D801ED91FC910190F08127
:10078000E02DC801099568816623A1F7DF91CF911B
:100790001F910F910895EF92FF920F931F93CF93A4
:1007A000DF938C017B01EA010CC0D7016D917D01C3
:1007B000D801ED91FC910190F081E02DC8010995DF
:1007C0002197209791F7DF91CF911F910F91FF9083
:1007D000EF900895DC01ED91FC910190F081E02D06
:1007E00009950895DC01ED91FC910280F381E02DE3
:1007F00009950895629FD001739FF001829FE00DDB
:10080000F11D649FE00DF11D929FF00D839FF00D8F
:10081000749FF00D659FF00D9927729FB00DE11D3B
:10082000F91F639FB00DE11DF91FBD01CF01112418
:10083000089597FB092E07260AD077FD04D049D0EA
:1008400006D000201AF4709561957F4F0895F6F751
:10085000909581959F4F0895A1E21A2EAA1BBB1B6C
:10086000FD010DC0AA1FBB1FEE1FFF1FA217B3077C
:10087000E407F50720F0A21BB30BE40BF50B661F92
:10088000771F881F991F1A9469F760957095809556
:1008900090959B01AC01BD01CF01089597FB092EF6
:1008A00005260ED057FD04D0D7DF0AD0001C38F43F
:1008B00050954095309521953F4F4F4F5F4F08958C
:1008C000F6F790958095709561957F4F8F4F9F4F6C
:1008D0000895AA1BBB1B51E107C0AA1FBB1FA61787
:1008E000B70710F0A61BB70B881F991F5A95A9F7D9
:1008F00080959095BC01CD010895EE0FFF1F0590E6
:10090000F491E02D09942F923F924F925F926F9253
:100910007F928F929F92AF92BF92CF92DF92EF928F
:10092000FF920F931F93CF93DF93CDB7DEB7CA1B10
:10093000DB0B0FB6F894DEBF0FBECDBF09942A883B
:10094000398848885F846E847D848C849B84AA84E3
:10095000B984C884DF80EE80FD800C811B81AA8170
:10096000B981CE0FD11D0FB6F894DEBF0FBECDBF3B
:08097000ED010895F894FFCF9A
:1009780056696E63656E74416C6C69736F6E416C19
:10098800666F6E736541626967616C654164656C29
:10099800617264416E746F6E696F4261726E6574E4
:1009A8007444656C616E65794865726265727447F6
:1009B80061726E65747450726573746F6E4D6164A4
:1009C8006F6E6E615369676D756E644D617274699F
:1009D8006E615A61636861727956616E657373619D
:1009E8000001000000303132333435363738396190
:1009F80062636465660001000000001E03B303CB58
:020A08000300E9
:00000001FF
